{
  "abi": [
    {
      "type": "constructor",
      "inputs": [
        {
          "name": "_tokenAddress",
          "type": "address",
          "internalType": "address"
        },
        {
          "name": "_dripInterval",
          "type": "uint256",
          "internalType": "uint256"
        },
        {
          "name": "_dripLimit",
          "type": "uint256",
          "internalType": "uint256"
        }
      ],
      "stateMutability": "nonpayable"
    },
    {
      "type": "function",
      "name": "deposit",
      "inputs": [
        {
          "name": "_amount",
          "type": "uint256",
          "internalType": "uint256"
        }
      ],
      "outputs": [],
      "stateMutability": "nonpayable"
    },
    {
      "type": "function",
      "name": "drip",
      "inputs": [
        {
          "name": "_amount",
          "type": "uint256",
          "internalType": "uint256"
        }
      ],
      "outputs": [],
      "stateMutability": "nonpayable"
    },
    {
      "type": "function",
      "name": "dripInterval",
      "inputs": [],
      "outputs": [
        {
          "name": "",
          "type": "uint256",
          "internalType": "uint256"
        }
      ],
      "stateMutability": "view"
    },
    {
      "type": "function",
      "name": "dripLimit",
      "inputs": [],
      "outputs": [
        {
          "name": "",
          "type": "uint256",
          "internalType": "uint256"
        }
      ],
      "stateMutability": "view"
    },
    {
      "type": "function",
      "name": "lastDripTime",
      "inputs": [
        {
          "name": "",
          "type": "address",
          "internalType": "address"
        }
      ],
      "outputs": [
        {
          "name": "",
          "type": "uint256",
          "internalType": "uint256"
        }
      ],
      "stateMutability": "view"
    },
    {
      "type": "function",
      "name": "owner",
      "inputs": [],
      "outputs": [
        {
          "name": "",
          "type": "address",
          "internalType": "address"
        }
      ],
      "stateMutability": "view"
    },
    {
      "type": "function",
      "name": "renounceOwnership",
      "inputs": [],
      "outputs": [],
      "stateMutability": "nonpayable"
    },
    {
      "type": "function",
      "name": "setDripInterval",
      "inputs": [
        {
          "name": "_newDripInterval",
          "type": "uint256",
          "internalType": "uint256"
        }
      ],
      "outputs": [],
      "stateMutability": "nonpayable"
    },
    {
      "type": "function",
      "name": "setDripLimit",
      "inputs": [
        {
          "name": "_newDripLimit",
          "type": "uint256",
          "internalType": "uint256"
        }
      ],
      "outputs": [],
      "stateMutability": "nonpayable"
    },
    {
      "type": "function",
      "name": "setTokenAddress",
      "inputs": [
        {
          "name": "_newTokenAddress",
          "type": "address",
          "internalType": "address"
        }
      ],
      "outputs": [],
      "stateMutability": "nonpayable"
    },
    {
      "type": "function",
      "name": "token",
      "inputs": [],
      "outputs": [
        {
          "name": "",
          "type": "address",
          "internalType": "contract IERC20"
        }
      ],
      "stateMutability": "view"
    },
    {
      "type": "function",
      "name": "transferOwnership",
      "inputs": [
        {
          "name": "newOwner",
          "type": "address",
          "internalType": "address"
        }
      ],
      "outputs": [],
      "stateMutability": "nonpayable"
    },
    {
      "type": "function",
      "name": "withdrawAssets",
      "inputs": [
        {
          "name": "_token",
          "type": "address",
          "internalType": "address"
        },
        {
          "name": "_amount",
          "type": "uint256",
          "internalType": "uint256"
        }
      ],
      "outputs": [],
      "stateMutability": "nonpayable"
    },
    {
      "type": "event",
      "name": "Deposit",
      "inputs": [
        {
          "name": "amount",
          "type": "uint256",
          "indexed": true,
          "internalType": "uint256"
        }
      ],
      "anonymous": false
    },
    {
      "type": "event",
      "name": "Drip",
      "inputs": [
        {
          "name": "receiver",
          "type": "address",
          "indexed": true,
          "internalType": "address"
        },
        {
          "name": "amount",
          "type": "uint256",
          "indexed": true,
          "internalType": "uint256"
        }
      ],
      "anonymous": false
    },
    {
      "type": "event",
      "name": "OwnershipTransferred",
      "inputs": [
        {
          "name": "previousOwner",
          "type": "address",
          "indexed": true,
          "internalType": "address"
        },
        {
          "name": "newOwner",
          "type": "address",
          "indexed": true,
          "internalType": "address"
        }
      ],
      "anonymous": false
    },
    {
      "type": "event",
      "name": "TokenUpdated",
      "inputs": [
        {
          "name": "from",
          "type": "address",
          "indexed": true,
          "internalType": "address"
        },
        {
          "name": "to",
          "type": "address",
          "indexed": true,
          "internalType": "address"
        }
      ],
      "anonymous": false
    },
    {
      "type": "error",
      "name": "Faucet_DepositFailed",
      "inputs": []
    },
    {
      "type": "error",
      "name": "Faucet_ExceedLimit",
      "inputs": []
    },
    {
      "type": "error",
      "name": "Faucet_FaucetEmpty",
      "inputs": []
    },
    {
      "type": "error",
      "name": "Faucet_InvalidAddress",
      "inputs": []
    },
    {
      "type": "error",
      "name": "Faucet_InvalidAmount",
      "inputs": []
    },
    {
      "type": "error",
      "name": "Faucet_TooFrequently",
      "inputs": []
    },
    {
      "type": "error",
      "name": "OwnableInvalidOwner",
      "inputs": [
        {
          "name": "owner",
          "type": "address",
          "internalType": "address"
        }
      ]
    },
    {
      "type": "error",
      "name": "OwnableUnauthorizedAccount",
      "inputs": [
        {
          "name": "account",
          "type": "address",
          "internalType": "address"
        }
      ]
    },
    {
      "type": "error",
      "name": "ReentrancyGuardReentrantCall",
      "inputs": []
    },
    {
      "type": "error",
      "name": "SafeERC20FailedOperation",
      "inputs": [
        {
          "name": "token",
          "type": "address",
          "internalType": "address"
        }
      ]
    }
  ],
  "bytecode": {
    "object": "0x608060405234801561000f575f5ffd5b5060405161118a38038061118a833981810160405281019061003191906102c4565b61003f61013960201b60201c565b5f73ffffffffffffffffffffffffffffffffffffffff168173ffffffffffffffffffffffffffffffffffffffff16036100af575f6040517f1e4fbdf70000000000000000000000000000000000000000000000000000000081526004016100a69190610323565b60405180910390fd5b6100be8161014060201b60201c565b5060016100dd6100d261020160201b60201c565b61022a60201b60201c565b5f01819055508260015f6101000a81548173ffffffffffffffffffffffffffffffffffffffff021916908373ffffffffffffffffffffffffffffffffffffffff160217905550816002819055508060038190555050505061033c565b5f33905090565b5f5f5f9054906101000a900473ffffffffffffffffffffffffffffffffffffffff169050815f5f6101000a81548173ffffffffffffffffffffffffffffffffffffffff021916908373ffffffffffffffffffffffffffffffffffffffff1602179055508173ffffffffffffffffffffffffffffffffffffffff168173ffffffffffffffffffffffffffffffffffffffff167f8be0079c531659141344cd1fd0a4f28419497f9722a3daafe3b4186f6b6457e060405160405180910390a35050565b5f7f9b779b17422d0df92223018b32b4d1fa46e071723d6817e2486d003becc55f005f1b905090565b5f819050919050565b5f5ffd5b5f73ffffffffffffffffffffffffffffffffffffffff82169050919050565b5f61026082610237565b9050919050565b61027081610256565b811461027a575f5ffd5b50565b5f8151905061028b81610267565b92915050565b5f819050919050565b6102a381610291565b81146102ad575f5ffd5b50565b5f815190506102be8161029a565b92915050565b5f5f5f606084860312156102db576102da610233565b5b5f6102e88682870161027d565b93505060206102f9868287016102b0565b925050604061030a868287016102b0565b9150509250925092565b61031d81610256565b82525050565b5f6020820190506103365f830184610314565b92915050565b610e41806103495f395ff3fe608060405234801561000f575f5ffd5b50600436106100cd575f3560e01c80638b8a60bd1161008a578063b6b55f2511610064578063b6b55f25146101d5578063efb65e89146101f1578063f2fde38b1461020d578063fc0c546a14610229576100cd565b80638b8a60bd1461016b5780638da5cb5b1461019b578063a9a89db9146101b9576100cd565b806326a4e8d2146100d15780634bd74aa6146100ed5780634d4c7d111461010957806358326b7a146101275780636a21481114610143578063715018a614610161575b5f5ffd5b6100eb60048036038101906100e69190610be1565b610247565b005b61010760048036038101906101029190610c3f565b610372565b005b610111610384565b60405161011e9190610c79565b60405180910390f35b610141600480360381019061013c9190610c3f565b61038a565b005b61014b610622565b6040516101589190610c79565b60405180910390f35b610169610628565b005b61018560048036038101906101809190610be1565b61063b565b6040516101929190610c79565b60405180910390f35b6101a3610650565b6040516101b09190610ca1565b60405180910390f35b6101d360048036038101906101ce9190610c3f565b610677565b005b6101ef60048036038101906101ea9190610c3f565b610689565b005b61020b60048036038101906102069190610cba565b610707565b005b61022760048036038101906102229190610be1565b610745565b005b6102316107c9565b60405161023e9190610d53565b60405180910390f35b61024f6107ee565b5f73ffffffffffffffffffffffffffffffffffffffff168173ffffffffffffffffffffffffffffffffffffffff16036102b4576040517f87eebda200000000000000000000000000000000000000000000000000000000815260040160405180910390fd5b8060015f6101000a81548173ffffffffffffffffffffffffffffffffffffffff021916908373ffffffffffffffffffffffffffffffffffffffff1602179055508073ffffffffffffffffffffffffffffffffffffffff1660015f9054906101000a900473ffffffffffffffffffffffffffffffffffffffff1673ffffffffffffffffffffffffffffffffffffffff167f0b1186973f810894b87ab0bfbee422fddcaad21b46dc705a561451bbb6bac11760405160405180910390a350565b61037a6107ee565b8060038190555050565b60035481565b610392610875565b5f81905060025460045f6103a4610897565b73ffffffffffffffffffffffffffffffffffffffff1673ffffffffffffffffffffffffffffffffffffffff1681526020019081526020015f20546103e89190610d99565b421015610421576040517f69f6e9f600000000000000000000000000000000000000000000000000000000815260040160405180910390fd5b60035481111561045d576040517fc66b08d300000000000000000000000000000000000000000000000000000000815260040160405180910390fd5b8060015f9054906101000a900473ffffffffffffffffffffffffffffffffffffffff1673ffffffffffffffffffffffffffffffffffffffff166370a08231306040518263ffffffff1660e01b81526004016104b89190610ca1565b602060405180830381865afa1580156104d3573d5f5f3e3d5ffd5b505050506040513d601f19601f820116820180604052508101906104f79190610de0565b101561052f576040517f8d3ca4ba00000000000000000000000000000000000000000000000000000000815260040160405180910390fd5b4260045f61053b610897565b73ffffffffffffffffffffffffffffffffffffffff1673ffffffffffffffffffffffffffffffffffffffff1681526020019081526020015f20819055506105cb610583610897565b8260015f9054906101000a900473ffffffffffffffffffffffffffffffffffffffff1673ffffffffffffffffffffffffffffffffffffffff1661089e9092919063ffffffff16565b806105d4610897565b73ffffffffffffffffffffffffffffffffffffffff167f7cad7fbe1215c486c724bf41124e0ed689d280724381379da844556025c463c160405160405180910390a35061061f6108f1565b50565b60025481565b6106306107ee565b6106395f61090b565b565b6004602052805f5260405f205f915090505481565b5f5f5f9054906101000a900473ffffffffffffffffffffffffffffffffffffffff16905090565b61067f6107ee565b8060028190555050565b6106d733308360015f9054906101000a900473ffffffffffffffffffffffffffffffffffffffff1673ffffffffffffffffffffffffffffffffffffffff166109cc909392919063ffffffff16565b807f4d6ce1e535dbade1c23defba91e23b8f791ce5edc0cc320257a2b364e4e3842660405160405180910390a250565b61070f6107ee565b61074161071a610650565b828473ffffffffffffffffffffffffffffffffffffffff1661089e9092919063ffffffff16565b5050565b61074d6107ee565b5f73ffffffffffffffffffffffffffffffffffffffff168173ffffffffffffffffffffffffffffffffffffffff16036107bd575f6040517f1e4fbdf70000000000000000000000000000000000000000000000000000000081526004016107b49190610ca1565b60405180910390fd5b6107c68161090b565b50565b60015f9054906101000a900473ffffffffffffffffffffffffffffffffffffffff1681565b6107f6610897565b73ffffffffffffffffffffffffffffffffffffffff16610814610650565b73ffffffffffffffffffffffffffffffffffffffff161461087357610837610897565b6040517f118cdaa700000000000000000000000000000000000000000000000000000000815260040161086a9190610ca1565b60405180910390fd5b565b61087d610a21565b600261088f61088a610a62565b610a8b565b5f0181905550565b5f33905090565b6108ab8383836001610a94565b6108ec57826040517f5274afe70000000000000000000000000000000000000000000000000000000081526004016108e39190610ca1565b60405180910390fd5b505050565b60016109036108fe610a62565b610a8b565b5f0181905550565b5f5f5f9054906101000a900473ffffffffffffffffffffffffffffffffffffffff169050815f5f6101000a81548173ffffffffffffffffffffffffffffffffffffffff021916908373ffffffffffffffffffffffffffffffffffffffff1602179055508173ffffffffffffffffffffffffffffffffffffffff168173ffffffffffffffffffffffffffffffffffffffff167f8be0079c531659141344cd1fd0a4f28419497f9722a3daafe3b4186f6b6457e060405160405180910390a35050565b6109da848484846001610af6565b610a1b57836040517f5274afe7000000000000000000000000000000000000000000000000000000008152600401610a129190610ca1565b60405180910390fd5b50505050565b610a29610b67565b15610a60576040517f3ee5aeb500000000000000000000000000000000000000000000000000000000815260040160405180910390fd5b565b5f7f9b779b17422d0df92223018b32b4d1fa46e071723d6817e2486d003becc55f005f1b905090565b5f819050919050565b5f5f63a9059cbb60e01b9050604051815f525f1960601c86166004528460245260205f60445f5f8b5af1925060015f51148316610ae8578383151615610adc573d5f823e3d81fd5b5f873b113d1516831692505b806040525050949350505050565b5f5f6323b872dd60e01b9050604051815f525f1960601c87166004525f1960601c86166024528460445260205f60645f5f8c5af1925060015f51148316610b54578383151615610b48573d5f823e3d81fd5b5f883b113d1516831692505b806040525f606052505095945050505050565b5f6002610b7a610b75610a62565b610a8b565b5f015414905090565b5f5ffd5b5f73ffffffffffffffffffffffffffffffffffffffff82169050919050565b5f610bb082610b87565b9050919050565b610bc081610ba6565b8114610bca575f5ffd5b50565b5f81359050610bdb81610bb7565b92915050565b5f60208284031215610bf657610bf5610b83565b5b5f610c0384828501610bcd565b91505092915050565b5f819050919050565b610c1e81610c0c565b8114610c28575f5ffd5b50565b5f81359050610c3981610c15565b92915050565b5f60208284031215610c5457610c53610b83565b5b5f610c6184828501610c2b565b91505092915050565b610c7381610c0c565b82525050565b5f602082019050610c8c5f830184610c6a565b92915050565b610c9b81610ba6565b82525050565b5f602082019050610cb45f830184610c92565b92915050565b5f5f60408385031215610cd057610ccf610b83565b5b5f610cdd85828601610bcd565b9250506020610cee85828601610c2b565b9150509250929050565b5f819050919050565b5f610d1b610d16610d1184610b87565b610cf8565b610b87565b9050919050565b5f610d2c82610d01565b9050919050565b5f610d3d82610d22565b9050919050565b610d4d81610d33565b82525050565b5f602082019050610d665f830184610d44565b92915050565b7f4e487b71000000000000000000000000000000000000000000000000000000005f52601160045260245ffd5b5f610da382610c0c565b9150610dae83610c0c565b9250828201905080821115610dc657610dc5610d6c565b5b92915050565b5f81519050610dda81610c15565b92915050565b5f60208284031215610df557610df4610b83565b5b5f610e0284828501610dcc565b9150509291505056fea26469706673582212204ab297fd813e5187ad0c525f4bb8ffc5767b4c08ddc54177312581f895a043a464736f6c63430008210033",
    "linkReferences": {}
  },
  "methodIdentifiers": {
    "deposit(uint256)": "b6b55f25",
    "drip(uint256)": "58326b7a",
    "dripInterval()": "6a214811",
    "dripLimit()": "4d4c7d11",
    "lastDripTime(address)": "8b8a60bd",
    "owner()": "8da5cb5b",
    "renounceOwnership()": "715018a6",
    "setDripInterval(uint256)": "a9a89db9",
    "setDripLimit(uint256)": "4bd74aa6",
    "setTokenAddress(address)": "26a4e8d2",
    "token()": "fc0c546a",
    "transferOwnership(address)": "f2fde38b",
    "withdrawAssets(address,uint256)": "efb65e89"
  },
  "id": 32
}